{
    "_format": "hh-sol-artifact-1",
    "contractName": "MyEpicNFT",
    "sourceName": "contracts/MyEpicNFT.sol",
    "abi": [
        {
            "inputs": [],
            "stateMutability": "nonpayable",
            "type": "constructor"
        },
        {
            "anonymous": false,
            "inputs": [
                {
                    "indexed": true,
                    "internalType": "address",
                    "name": "owner",
                    "type": "address"
                },
                {
                    "indexed": true,
                    "internalType": "address",
                    "name": "approved",
                    "type": "address"
                },
                {
                    "indexed": true,
                    "internalType": "uint256",
                    "name": "tokenId",
                    "type": "uint256"
                }
            ],
            "name": "Approval",
            "type": "event"
        },
        {
            "anonymous": false,
            "inputs": [
                {
                    "indexed": true,
                    "internalType": "address",
                    "name": "owner",
                    "type": "address"
                },
                {
                    "indexed": true,
                    "internalType": "address",
                    "name": "operator",
                    "type": "address"
                },
                {
                    "indexed": false,
                    "internalType": "bool",
                    "name": "approved",
                    "type": "bool"
                }
            ],
            "name": "ApprovalForAll",
            "type": "event"
        },
        {
            "anonymous": false,
            "inputs": [
                {
                    "indexed": true,
                    "internalType": "address",
                    "name": "from",
                    "type": "address"
                },
                {
                    "indexed": true,
                    "internalType": "address",
                    "name": "to",
                    "type": "address"
                },
                {
                    "indexed": true,
                    "internalType": "uint256",
                    "name": "tokenId",
                    "type": "uint256"
                }
            ],
            "name": "Transfer",
            "type": "event"
        },
        {
            "inputs": [
                {
                    "internalType": "address",
                    "name": "to",
                    "type": "address"
                },
                {
                    "internalType": "uint256",
                    "name": "tokenId",
                    "type": "uint256"
                }
            ],
            "name": "approve",
            "outputs": [],
            "stateMutability": "nonpayable",
            "type": "function"
        },
        {
            "inputs": [
                {
                    "internalType": "address",
                    "name": "owner",
                    "type": "address"
                }
            ],
            "name": "balanceOf",
            "outputs": [
                {
                    "internalType": "uint256",
                    "name": "",
                    "type": "uint256"
                }
            ],
            "stateMutability": "view",
            "type": "function"
        },
        {
            "inputs": [
                {
                    "internalType": "uint256",
                    "name": "tokenId",
                    "type": "uint256"
                }
            ],
            "name": "getApproved",
            "outputs": [
                {
                    "internalType": "address",
                    "name": "",
                    "type": "address"
                }
            ],
            "stateMutability": "view",
            "type": "function"
        },
        {
            "inputs": [
                {
                    "internalType": "address",
                    "name": "owner",
                    "type": "address"
                },
                {
                    "internalType": "address",
                    "name": "operator",
                    "type": "address"
                }
            ],
            "name": "isApprovedForAll",
            "outputs": [
                {
                    "internalType": "bool",
                    "name": "",
                    "type": "bool"
                }
            ],
            "stateMutability": "view",
            "type": "function"
        },
        {
            "inputs": [],
            "name": "makeNFT",
            "outputs": [],
            "stateMutability": "nonpayable",
            "type": "function"
        },
        {
            "inputs": [],
            "name": "name",
            "outputs": [
                {
                    "internalType": "string",
                    "name": "",
                    "type": "string"
                }
            ],
            "stateMutability": "view",
            "type": "function"
        },
        {
            "inputs": [
                {
                    "internalType": "uint256",
                    "name": "tokenId",
                    "type": "uint256"
                }
            ],
            "name": "ownerOf",
            "outputs": [
                {
                    "internalType": "address",
                    "name": "",
                    "type": "address"
                }
            ],
            "stateMutability": "view",
            "type": "function"
        },
        {
            "inputs": [
                {
                    "internalType": "uint256",
                    "name": "number",
                    "type": "uint256"
                },
                {
                    "internalType": "uint256",
                    "name": "timestamp",
                    "type": "uint256"
                },
                {
                    "internalType": "uint256",
                    "name": "difficulty",
                    "type": "uint256"
                },
                {
                    "internalType": "address",
                    "name": "sender",
                    "type": "address"
                }
            ],
            "name": "random",
            "outputs": [
                {
                    "internalType": "uint256",
                    "name": "",
                    "type": "uint256"
                }
            ],
            "stateMutability": "pure",
            "type": "function"
        },
        {
            "inputs": [
                {
                    "internalType": "address",
                    "name": "from",
                    "type": "address"
                },
                {
                    "internalType": "address",
                    "name": "to",
                    "type": "address"
                },
                {
                    "internalType": "uint256",
                    "name": "tokenId",
                    "type": "uint256"
                }
            ],
            "name": "safeTransferFrom",
            "outputs": [],
            "stateMutability": "nonpayable",
            "type": "function"
        },
        {
            "inputs": [
                {
                    "internalType": "address",
                    "name": "from",
                    "type": "address"
                },
                {
                    "internalType": "address",
                    "name": "to",
                    "type": "address"
                },
                {
                    "internalType": "uint256",
                    "name": "tokenId",
                    "type": "uint256"
                },
                {
                    "internalType": "bytes",
                    "name": "data",
                    "type": "bytes"
                }
            ],
            "name": "safeTransferFrom",
            "outputs": [],
            "stateMutability": "nonpayable",
            "type": "function"
        },
        {
            "inputs": [
                {
                    "internalType": "address",
                    "name": "operator",
                    "type": "address"
                },
                {
                    "internalType": "bool",
                    "name": "approved",
                    "type": "bool"
                }
            ],
            "name": "setApprovalForAll",
            "outputs": [],
            "stateMutability": "nonpayable",
            "type": "function"
        },
        {
            "inputs": [
                {
                    "internalType": "bytes4",
                    "name": "interfaceId",
                    "type": "bytes4"
                }
            ],
            "name": "supportsInterface",
            "outputs": [
                {
                    "internalType": "bool",
                    "name": "",
                    "type": "bool"
                }
            ],
            "stateMutability": "view",
            "type": "function"
        },
        {
            "inputs": [],
            "name": "symbol",
            "outputs": [
                {
                    "internalType": "string",
                    "name": "",
                    "type": "string"
                }
            ],
            "stateMutability": "view",
            "type": "function"
        },
        {
            "inputs": [
                {
                    "internalType": "uint256",
                    "name": "tokenId",
                    "type": "uint256"
                }
            ],
            "name": "tokenURI",
            "outputs": [
                {
                    "internalType": "string",
                    "name": "",
                    "type": "string"
                }
            ],
            "stateMutability": "view",
            "type": "function"
        },
        {
            "inputs": [
                {
                    "internalType": "address",
                    "name": "from",
                    "type": "address"
                },
                {
                    "internalType": "address",
                    "name": "to",
                    "type": "address"
                },
                {
                    "internalType": "uint256",
                    "name": "tokenId",
                    "type": "uint256"
                }
            ],
            "name": "transferFrom",
            "outputs": [],
            "stateMutability": "nonpayable",
            "type": "function"
        }
    ],
    "bytecode": "0x60806040523480156200001157600080fd5b506040518060400160405280600d81526020017f4563746f706c61736d614e4654000000000000000000000000000000000000008152506040518060400160405280600481526020017f4543544f0000000000000000000000000000000000000000000000000000000081525081600090816200008f91906200043b565b508060019081620000a191906200043b565b505050620000ef6040518060400160405280601e81526020017f54686973206973206d79204e465420636f6e74726163742e2057686f61210000815250620000f560201b62000b261760201c565b620005d5565b62000195816040516024016200010c9190620005b1565b6040516020818303038152906040527f41304fac000000000000000000000000000000000000000000000000000000007bffffffffffffffffffffffffffffffffffffffffffffffffffffffff19166020820180517bffffffffffffffffffffffffffffffffffffffffffffffffffffffff83818316178352505050506200019860201b60201c565b50565b60008151905060006a636f6e736f6c652e6c6f679050602083016000808483855afa5050505050565b600081519050919050565b7f4e487b7100000000000000000000000000000000000000000000000000000000600052604160045260246000fd5b7f4e487b7100000000000000000000000000000000000000000000000000000000600052602260045260246000fd5b600060028204905060018216806200024357607f821691505b602082108103620002595762000258620001fb565b5b50919050565b60008190508160005260206000209050919050565b60006020601f8301049050919050565b600082821b905092915050565b600060088302620002c37fffffffffffffffffffffffffffffffffffffffffffffffffffffffffffffffff8262000284565b620002cf868362000284565b95508019841693508086168417925050509392505050565b6000819050919050565b6000819050919050565b60006200031c620003166200031084620002e7565b620002f1565b620002e7565b9050919050565b6000819050919050565b6200033883620002fb565b62000350620003478262000323565b84845462000291565b825550505050565b600090565b6200036762000358565b620003748184846200032d565b505050565b5b818110156200039c57620003906000826200035d565b6001810190506200037a565b5050565b601f821115620003eb57620003b5816200025f565b620003c08462000274565b81016020851015620003d0578190505b620003e8620003df8562000274565b83018262000379565b50505b505050565b600082821c905092915050565b60006200041060001984600802620003f0565b1980831691505092915050565b60006200042b8383620003fd565b9150826002028217905092915050565b6200044682620001c1565b67ffffffffffffffff811115620004625762000461620001cc565b5b6200046e82546200022a565b6200047b828285620003a0565b600060209050601f831160018114620004b357600084156200049e578287015190505b620004aa85826200041d565b8655506200051a565b601f198416620004c3866200025f565b60005b82811015620004ed57848901518255600182019150602085019450602081019050620004c6565b868310156200050d578489015162000509601f891682620003fd565b8355505b6001600288020188555050505b505050505050565b600082825260208201905092915050565b60005b838110156200055357808201518184015260208101905062000536565b60008484015250505050565b6000601f19601f8301169050919050565b60006200057d82620001c1565b62000589818562000522565b93506200059b81856020860162000533565b620005a6816200055f565b840191505092915050565b60006020820190508181036000830152620005cd818462000570565b905092915050565b6136ad80620005e56000396000f3fe608060405234801561001057600080fd5b50600436106100f55760003560e01c806368db80cc11610097578063b036b4bd11610066578063b036b4bd14610296578063b88d4fde146102a0578063c87b56dd146102bc578063e985e9c5146102ec576100f5565b806368db80cc146101fc57806370a082311461022c57806395d89b411461025c578063a22cb4651461027a576100f5565b8063095ea7b3116100d3578063095ea7b31461017857806323b872dd1461019457806342842e0e146101b05780636352211e146101cc576100f5565b806301ffc9a7146100fa57806306fdde031461012a578063081812fc14610148575b600080fd5b610114600480360381019061010f91906121e8565b61031c565b6040516101219190612230565b60405180910390f35b6101326103fe565b60405161013f91906122db565b60405180910390f35b610162600480360381019061015d9190612333565b610490565b60405161016f91906123a1565b60405180910390f35b610192600480360381019061018d91906123e8565b6104d6565b005b6101ae60048036038101906101a99190612428565b6105ed565b005b6101ca60048036038101906101c59190612428565b61064d565b005b6101e660048036038101906101e19190612333565b61066d565b6040516101f391906123a1565b60405180910390f35b6102166004803603810190610211919061247b565b61071e565b60405161022391906124f1565b60405180910390f35b6102466004803603810190610241919061250c565b610763565b60405161025391906124f1565b60405180910390f35b61026461081a565b60405161027191906122db565b60405180910390f35b610294600480360381019061028f9190612565565b6108ac565b005b61029e6108c2565b005b6102ba60048036038101906102b591906126da565b610948565b005b6102d660048036038101906102d19190612333565b6109aa565b6040516102e391906122db565b60405180910390f35b6103066004803603810190610301919061275d565b610a92565b6040516103139190612230565b60405180910390f35b60007f80ac58cd000000000000000000000000000000000000000000000000000000007bffffffffffffffffffffffffffffffffffffffffffffffffffffffff1916827bffffffffffffffffffffffffffffffffffffffffffffffffffffffff191614806103e757507f5b5e139f000000000000000000000000000000000000000000000000000000007bffffffffffffffffffffffffffffffffffffffffffffffffffffffff1916827bffffffffffffffffffffffffffffffffffffffffffffffffffffffff1916145b806103f757506103f682610bbf565b5b9050919050565b60606000805461040d906127cc565b80601f0160208091040260200160405190810160405280929190818152602001828054610439906127cc565b80156104865780601f1061045b57610100808354040283529160200191610486565b820191906000526020600020905b81548152906001019060200180831161046957829003601f168201915b5050505050905090565b600061049b82610c29565b6004600083815260200190815260200160002060009054906101000a900473ffffffffffffffffffffffffffffffffffffffff169050919050565b60006104e18261066d565b90508073ffffffffffffffffffffffffffffffffffffffff168373ffffffffffffffffffffffffffffffffffffffff1603610551576040517f08c379a00000000000000000000000000000000000000000000000000000000081526004016105489061286f565b60405180910390fd5b8073ffffffffffffffffffffffffffffffffffffffff16610570610c74565b73ffffffffffffffffffffffffffffffffffffffff16148061059f575061059e81610599610c74565b610a92565b5b6105de576040517f08c379a00000000000000000000000000000000000000000000000000000000081526004016105d590612901565b60405180910390fd5b6105e88383610c7c565b505050565b6105fe6105f8610c74565b82610d35565b61063d576040517f08c379a000000000000000000000000000000000000000000000000000000000815260040161063490612993565b60405180910390fd5b610648838383610dca565b505050565b61066883838360405180602001604052806000815250610948565b505050565b6000806002600084815260200190815260200160002060009054906101000a900473ffffffffffffffffffffffffffffffffffffffff169050600073ffffffffffffffffffffffffffffffffffffffff168173ffffffffffffffffffffffffffffffffffffffff1603610715576040517f08c379a000000000000000000000000000000000000000000000000000000000815260040161070c906129ff565b60405180910390fd5b80915050919050565b60008484848460405160200161073693929190612a88565b6040516020818303038152906040528051906020012060001c6107599190612af4565b9050949350505050565b60008073ffffffffffffffffffffffffffffffffffffffff168273ffffffffffffffffffffffffffffffffffffffff16036107d3576040517f08c379a00000000000000000000000000000000000000000000000000000000081526004016107ca90612b97565b60405180910390fd5b600360008373ffffffffffffffffffffffffffffffffffffffff1673ffffffffffffffffffffffffffffffffffffffff168152602001908152602001600020549050919050565b606060018054610829906127cc565b80601f0160208091040260200160405190810160405280929190818152602001828054610855906127cc565b80156108a25780601f10610877576101008083540402835291602001916108a2565b820191906000526020600020905b81548152906001019060200180831161088557829003601f168201915b5050505050905090565b6108be6108b7610c74565b8383611030565b5050565b6109006040518060400160405280600b81526020017f484f4f4f4f4f20414c4c4f000000000000000000000000000000000000000000815250610b26565b600061090c600661119c565b905061091833826111aa565b61092260066111c8565b6109456040518060600160405280602581526020016136136025913982336111de565b50565b610959610953610c74565b83610d35565b610998576040517f08c379a000000000000000000000000000000000000000000000000000000000815260040161098f90612993565b60405180910390fd5b6109a48484848461127d565b50505050565b60606109ea6040518060400160405280600481526020017f4855485500000000000000000000000000000000000000000000000000000000815250610b26565b6109f3826112d9565b6109fc57600080fd5b610a1f6040518060600160405280602581526020016136136025913983336111de565b6000610a68610a39610a34600a42443361071e565b611345565b610a4e610a49600a42443361071e565b6115c3565b610a63610a5e600a42443361071e565b611841565b611abf565b905080604051602001610a7b9190612c3f565b604051602081830303815290604052915050919050565b6000600560008473ffffffffffffffffffffffffffffffffffffffff1673ffffffffffffffffffffffffffffffffffffffff16815260200190815260200160002060008373ffffffffffffffffffffffffffffffffffffffff1673ffffffffffffffffffffffffffffffffffffffff16815260200190815260200160002060009054906101000a900460ff16905092915050565b610bbc81604051602401610b3a91906122db565b6040516020818303038152906040527f41304fac000000000000000000000000000000000000000000000000000000007bffffffffffffffffffffffffffffffffffffffffffffffffffffffff19166020820180517bffffffffffffffffffffffffffffffffffffffffffffffffffffffff8381831617835250505050611b5f565b50565b60007f01ffc9a7000000000000000000000000000000000000000000000000000000007bffffffffffffffffffffffffffffffffffffffffffffffffffffffff1916827bffffffffffffffffffffffffffffffffffffffffffffffffffffffff1916149050919050565b610c32816112d9565b610c71576040517f08c379a0000000000000000000000000000000000000000000000000000000008152600401610c68906129ff565b60405180910390fd5b50565b600033905090565b816004600083815260200190815260200160002060006101000a81548173ffffffffffffffffffffffffffffffffffffffff021916908373ffffffffffffffffffffffffffffffffffffffff160217905550808273ffffffffffffffffffffffffffffffffffffffff16610cef8361066d565b73ffffffffffffffffffffffffffffffffffffffff167f8c5be1e5ebec7d5bd14f71427d1e84f3dd0314c0f7b2291e5b200ac8c7c3b92560405160405180910390a45050565b600080610d418361066d565b90508073ffffffffffffffffffffffffffffffffffffffff168473ffffffffffffffffffffffffffffffffffffffff161480610d835750610d828185610a92565b5b80610dc157508373ffffffffffffffffffffffffffffffffffffffff16610da984610490565b73ffffffffffffffffffffffffffffffffffffffff16145b91505092915050565b8273ffffffffffffffffffffffffffffffffffffffff16610dea8261066d565b73ffffffffffffffffffffffffffffffffffffffff1614610e40576040517f08c379a0000000000000000000000000000000000000000000000000000000008152600401610e3790612cd3565b60405180910390fd5b600073ffffffffffffffffffffffffffffffffffffffff168273ffffffffffffffffffffffffffffffffffffffff1603610eaf576040517f08c379a0000000000000000000000000000000000000000000000000000000008152600401610ea690612d65565b60405180910390fd5b610eba838383611b88565b610ec5600082610c7c565b6001600360008573ffffffffffffffffffffffffffffffffffffffff1673ffffffffffffffffffffffffffffffffffffffff1681526020019081526020016000206000828254610f159190612db4565b925050819055506001600360008473ffffffffffffffffffffffffffffffffffffffff1673ffffffffffffffffffffffffffffffffffffffff1681526020019081526020016000206000828254610f6c9190612de8565b92505081905550816002600083815260200190815260200160002060006101000a81548173ffffffffffffffffffffffffffffffffffffffff021916908373ffffffffffffffffffffffffffffffffffffffff160217905550808273ffffffffffffffffffffffffffffffffffffffff168473ffffffffffffffffffffffffffffffffffffffff167fddf252ad1be2c89b69c2b068fc378daa952ba7f163c4a11628f55a4df523b3ef60405160405180910390a461102b838383611b8d565b505050565b8173ffffffffffffffffffffffffffffffffffffffff168373ffffffffffffffffffffffffffffffffffffffff160361109e576040517f08c379a000000000000000000000000000000000000000000000000000000000815260040161109590612e68565b60405180910390fd5b80600560008573ffffffffffffffffffffffffffffffffffffffff1673ffffffffffffffffffffffffffffffffffffffff16815260200190815260200160002060008473ffffffffffffffffffffffffffffffffffffffff1673ffffffffffffffffffffffffffffffffffffffff16815260200190815260200160002060006101000a81548160ff0219169083151502179055508173ffffffffffffffffffffffffffffffffffffffff168373ffffffffffffffffffffffffffffffffffffffff167f17307eab39ab6107e8899845ad3d59bd9653f200f220920489ca2b5937696c318360405161118f9190612230565b60405180910390a3505050565b600081600001549050919050565b6111c4828260405180602001604052806000815250611b92565b5050565b6001816000016000828254019250508190555050565b6112788383836040516024016111f693929190612e88565b6040516020818303038152906040527f1c7ec448000000000000000000000000000000000000000000000000000000007bffffffffffffffffffffffffffffffffffffffffffffffffffffffff19166020820180517bffffffffffffffffffffffffffffffffffffffffffffffffffffffff8381831617835250505050611b5f565b505050565b611288848484610dca565b61129484848484611bed565b6112d3576040517f08c379a00000000000000000000000000000000000000000000000000000000081526004016112ca90612f38565b60405180910390fd5b50505050565b60008073ffffffffffffffffffffffffffffffffffffffff166002600084815260200190815260200160002060009054906101000a900473ffffffffffffffffffffffffffffffffffffffff1673ffffffffffffffffffffffffffffffffffffffff1614159050919050565b606060006040518061014001604052806040518060400160405280600481526020017f4563746f0000000000000000000000000000000000000000000000000000000081525081526020016040518060400160405280600a81526020017f4563746f706c61736d610000000000000000000000000000000000000000000081525081526020016040518060400160405280600481526020017f456374610000000000000000000000000000000000000000000000000000000081525081526020016040518060400160405280600a81526020017f4563746f706c61736d6f0000000000000000000000000000000000000000000081525081526020016040518060400160405280600781526020017f4563746f706c610000000000000000000000000000000000000000000000000081525081526020016040518060400160405280600781526020017f4563746f706c6f0000000000000000000000000000000000000000000000000081525081526020016040518060400160405280600a81526020017f45637461706c61736d610000000000000000000000000000000000000000000081525081526020016040518060400160405280600a81526020017f45637461706c61736d6f0000000000000000000000000000000000000000000081525081526020016040518060400160405280600981526020017f4563746f706c616d65000000000000000000000000000000000000000000000081525081526020016040518060400160405280600981526020017f4563746f706c6f6d65000000000000000000000000000000000000000000000081525081525090508083600a81106115b6576115b5612f58565b5b6020020151915050919050565b606060006040518061014001604052806040518060400160405280600381526020017f456174000000000000000000000000000000000000000000000000000000000081525081526020016040518060400160405280600581526020017f4472696e6b00000000000000000000000000000000000000000000000000000081525081526020016040518060400160405280600381526020017f52756e000000000000000000000000000000000000000000000000000000000081525081526020016040518060400160405280600481526020017f426974650000000000000000000000000000000000000000000000000000000081525081526020016040518060400160405280600581526020017f4861756e7400000000000000000000000000000000000000000000000000000081525081526020016040518060400160405280600681526020017f416363757365000000000000000000000000000000000000000000000000000081525081526020016040518060400160405280600381526020017f437279000000000000000000000000000000000000000000000000000000000081525081526020016040518060400160405280600581526020017f447269766500000000000000000000000000000000000000000000000000000081525081526020016040518060400160405280600481526020017f4c696b650000000000000000000000000000000000000000000000000000000081525081526020016040518060400160405280600581526020017f536c65657000000000000000000000000000000000000000000000000000000081525081525090508083600a811061183457611833612f58565b5b6020020151915050919050565b606060006040518061014001604052806040518060400160405280600881526020017f4d6167617a696e6500000000000000000000000000000000000000000000000081525081526020016040518060400160405280600581526020017f4170706c6500000000000000000000000000000000000000000000000000000081525081526020016040518060400160405280600781526020017f56656869636c650000000000000000000000000000000000000000000000000081525081526020016040518060400160405280600581526020017f4e6967687400000000000000000000000000000000000000000000000000000081525081526020016040518060400160405280600581526020017f486561727400000000000000000000000000000000000000000000000000000081525081526020016040518060400160405280600681526020017f447265616d73000000000000000000000000000000000000000000000000000081525081526020016040518060400160405280600681526020017f456e65726779000000000000000000000000000000000000000000000000000081525081526020016040518060400160405280600581526020017f426c6f6f6400000000000000000000000000000000000000000000000000000081525081526020016040518060400160405280600581526020017f50697a7a6100000000000000000000000000000000000000000000000000000081525081526020016040518060400160405280600581526020017f5069616e6f00000000000000000000000000000000000000000000000000000081525081525090508083600a8110611ab257611ab1612f58565b5b6020020151915050919050565b60606000611ae6604051806060016040528087815260200186815260200185815250611d74565b90506000611af382611de9565b9050600081604051602001611b089190612fd3565b6040516020818303038152906040529050600087878784604051602001611b329493929190613125565b60405160208183030381529060405290506000611b4e82611de9565b905080955050505050509392505050565b60008151905060006a636f6e736f6c652e6c6f679050602083016000808483855afa5050505050565b505050565b505050565b611b9c8383611f80565b611ba96000848484611bed565b611be8576040517f08c379a0000000000000000000000000000000000000000000000000000000008152600401611bdf90612f38565b60405180910390fd5b505050565b6000611c0e8473ffffffffffffffffffffffffffffffffffffffff16612159565b15611d67578373ffffffffffffffffffffffffffffffffffffffff1663150b7a02611c37610c74565b8786866040518563ffffffff1660e01b8152600401611c5994939291906131d9565b6020604051808303816000875af1925050508015611c9557506040513d601f19601f82011682018060405250810190611c92919061323a565b60015b611d17573d8060008114611cc5576040519150601f19603f3d011682016040523d82523d6000602084013e611cca565b606091505b506000815103611d0f576040517f08c379a0000000000000000000000000000000000000000000000000000000008152600401611d0690612f38565b60405180910390fd5b805181602001fd5b63150b7a0260e01b7bffffffffffffffffffffffffffffffffffffffffffffffffffffffff1916817bffffffffffffffffffffffffffffffffffffffffffffffffffffffff191614915050611d6c565b600190505b949350505050565b606081600060038110611d8a57611d89612f58565b5b602002015182600160038110611da357611da2612f58565b5b602002015183600260038110611dbc57611dbb612f58565b5b6020020151604051602001611dd393929190613480565b6040516020818303038152906040529050919050565b606060008251905060008103611e115760405180602001604052806000815250915050611f7b565b60006003600283611e229190612de8565b611e2c91906134c7565b6004611e3891906134f8565b90506000602082611e499190612de8565b67ffffffffffffffff811115611e6257611e616125af565b5b6040519080825280601f01601f191660200182016040528015611e945781602001600182028036833780820191505090505b5090506000604051806060016040528060408152602001613638604091399050600181016020830160005b86811015611f385760038101905062ffffff818a015116603f8160121c168401518060081b905060ff603f83600c1c1686015116810190508060081b905060ff603f8360061c1686015116810190508060081b905060ff603f831686015116810190508060e01b90508084526004840193505050611ebf565b506003860660018114611f525760028114611f6257611f6d565b613d3d60f01b6002830352611f6d565b603d60f81b60018303525b508484525050819450505050505b919050565b600073ffffffffffffffffffffffffffffffffffffffff168273ffffffffffffffffffffffffffffffffffffffff1603611fef576040517f08c379a0000000000000000000000000000000000000000000000000000000008152600401611fe690613586565b60405180910390fd5b611ff8816112d9565b15612038576040517f08c379a000000000000000000000000000000000000000000000000000000000815260040161202f906135f2565b60405180910390fd5b61204460008383611b88565b6001600360008473ffffffffffffffffffffffffffffffffffffffff1673ffffffffffffffffffffffffffffffffffffffff16815260200190815260200160002060008282546120949190612de8565b92505081905550816002600083815260200190815260200160002060006101000a81548173ffffffffffffffffffffffffffffffffffffffff021916908373ffffffffffffffffffffffffffffffffffffffff160217905550808273ffffffffffffffffffffffffffffffffffffffff16600073ffffffffffffffffffffffffffffffffffffffff167fddf252ad1be2c89b69c2b068fc378daa952ba7f163c4a11628f55a4df523b3ef60405160405180910390a461215560008383611b8d565b5050565b6000808273ffffffffffffffffffffffffffffffffffffffff163b119050919050565b6000604051905090565b600080fd5b600080fd5b60007fffffffff0000000000000000000000000000000000000000000000000000000082169050919050565b6121c581612190565b81146121d057600080fd5b50565b6000813590506121e2816121bc565b92915050565b6000602082840312156121fe576121fd612186565b5b600061220c848285016121d3565b91505092915050565b60008115159050919050565b61222a81612215565b82525050565b60006020820190506122456000830184612221565b92915050565b600081519050919050565b600082825260208201905092915050565b60005b8381101561228557808201518184015260208101905061226a565b60008484015250505050565b6000601f19601f8301169050919050565b60006122ad8261224b565b6122b78185612256565b93506122c7818560208601612267565b6122d081612291565b840191505092915050565b600060208201905081810360008301526122f581846122a2565b905092915050565b6000819050919050565b612310816122fd565b811461231b57600080fd5b50565b60008135905061232d81612307565b92915050565b60006020828403121561234957612348612186565b5b60006123578482850161231e565b91505092915050565b600073ffffffffffffffffffffffffffffffffffffffff82169050919050565b600061238b82612360565b9050919050565b61239b81612380565b82525050565b60006020820190506123b66000830184612392565b92915050565b6123c581612380565b81146123d057600080fd5b50565b6000813590506123e2816123bc565b92915050565b600080604083850312156123ff576123fe612186565b5b600061240d858286016123d3565b925050602061241e8582860161231e565b9150509250929050565b60008060006060848603121561244157612440612186565b5b600061244f868287016123d3565b9350506020612460868287016123d3565b92505060406124718682870161231e565b9150509250925092565b6000806000806080858703121561249557612494612186565b5b60006124a38782880161231e565b94505060206124b48782880161231e565b93505060406124c58782880161231e565b92505060606124d6878288016123d3565b91505092959194509250565b6124eb816122fd565b82525050565b600060208201905061250660008301846124e2565b92915050565b60006020828403121561252257612521612186565b5b6000612530848285016123d3565b91505092915050565b61254281612215565b811461254d57600080fd5b50565b60008135905061255f81612539565b92915050565b6000806040838503121561257c5761257b612186565b5b600061258a858286016123d3565b925050602061259b85828601612550565b9150509250929050565b600080fd5b600080fd5b7f4e487b7100000000000000000000000000000000000000000000000000000000600052604160045260246000fd5b6125e782612291565b810181811067ffffffffffffffff82111715612606576126056125af565b5b80604052505050565b600061261961217c565b905061262582826125de565b919050565b600067ffffffffffffffff821115612645576126446125af565b5b61264e82612291565b9050602081019050919050565b82818337600083830152505050565b600061267d6126788461262a565b61260f565b905082815260208101848484011115612699576126986125aa565b5b6126a484828561265b565b509392505050565b600082601f8301126126c1576126c06125a5565b5b81356126d184826020860161266a565b91505092915050565b600080600080608085870312156126f4576126f3612186565b5b6000612702878288016123d3565b9450506020612713878288016123d3565b93505060406127248782880161231e565b925050606085013567ffffffffffffffff8111156127455761274461218b565b5b612751878288016126ac565b91505092959194509250565b6000806040838503121561277457612773612186565b5b6000612782858286016123d3565b9250506020612793858286016123d3565b9150509250929050565b7f4e487b7100000000000000000000000000000000000000000000000000000000600052602260045260246000fd5b600060028204905060018216806127e457607f821691505b6020821081036127f7576127f661279d565b5b50919050565b7f4552433732313a20617070726f76616c20746f2063757272656e74206f776e6560008201527f7200000000000000000000000000000000000000000000000000000000000000602082015250565b6000612859602183612256565b9150612864826127fd565b604082019050919050565b600060208201905081810360008301526128888161284c565b9050919050565b7f4552433732313a20617070726f76652063616c6c6572206973206e6f7420746f60008201527f6b656e206f776e6572206e6f7220617070726f76656420666f7220616c6c0000602082015250565b60006128eb603e83612256565b91506128f68261288f565b604082019050919050565b6000602082019050818103600083015261291a816128de565b9050919050565b7f4552433732313a2063616c6c6572206973206e6f7420746f6b656e206f776e6560008201527f72206e6f7220617070726f766564000000000000000000000000000000000000602082015250565b600061297d602e83612256565b915061298882612921565b604082019050919050565b600060208201905081810360008301526129ac81612970565b9050919050565b7f4552433732313a20696e76616c696420746f6b656e2049440000000000000000600082015250565b60006129e9601883612256565b91506129f4826129b3565b602082019050919050565b60006020820190508181036000830152612a18816129dc565b9050919050565b6000819050919050565b612a3a612a35826122fd565b612a1f565b82525050565b60008160601b9050919050565b6000612a5882612a40565b9050919050565b6000612a6a82612a4d565b9050919050565b612a82612a7d82612380565b612a5f565b82525050565b6000612a948286612a29565b602082019150612aa48285612a29565b602082019150612ab48284612a71565b601482019150819050949350505050565b7f4e487b7100000000000000000000000000000000000000000000000000000000600052601260045260246000fd5b6000612aff826122fd565b9150612b0a836122fd565b925082612b1a57612b19612ac5565b5b828206905092915050565b7f4552433732313a2061646472657373207a65726f206973206e6f74206120766160008201527f6c6964206f776e65720000000000000000000000000000000000000000000000602082015250565b6000612b81602983612256565b9150612b8c82612b25565b604082019050919050565b60006020820190508181036000830152612bb081612b74565b9050919050565b600081905092915050565b7f646174613a6170706c69636174696f6e2f6a736f6e3b6261736536342c000000600082015250565b6000612bf8601d83612bb7565b9150612c0382612bc2565b601d82019050919050565b6000612c198261224b565b612c238185612bb7565b9350612c33818560208601612267565b80840191505092915050565b6000612c4a82612beb565b9150612c568284612c0e565b915081905092915050565b7f4552433732313a207472616e736665722066726f6d20696e636f72726563742060008201527f6f776e6572000000000000000000000000000000000000000000000000000000602082015250565b6000612cbd602583612256565b9150612cc882612c61565b604082019050919050565b60006020820190508181036000830152612cec81612cb0565b9050919050565b7f4552433732313a207472616e7366657220746f20746865207a65726f2061646460008201527f7265737300000000000000000000000000000000000000000000000000000000602082015250565b6000612d4f602483612256565b9150612d5a82612cf3565b604082019050919050565b60006020820190508181036000830152612d7e81612d42565b9050919050565b7f4e487b7100000000000000000000000000000000000000000000000000000000600052601160045260246000fd5b6000612dbf826122fd565b9150612dca836122fd565b9250828203905081811115612de257612de1612d85565b5b92915050565b6000612df3826122fd565b9150612dfe836122fd565b9250828201905080821115612e1657612e15612d85565b5b92915050565b7f4552433732313a20617070726f766520746f2063616c6c657200000000000000600082015250565b6000612e52601983612256565b9150612e5d82612e1c565b602082019050919050565b60006020820190508181036000830152612e8181612e45565b9050919050565b60006060820190508181036000830152612ea281866122a2565b9050612eb160208301856124e2565b612ebe6040830184612392565b949350505050565b7f4552433732313a207472616e7366657220746f206e6f6e20455243373231526560008201527f63656976657220696d706c656d656e7465720000000000000000000000000000602082015250565b6000612f22603283612256565b9150612f2d82612ec6565b604082019050919050565b60006020820190508181036000830152612f5181612f15565b9050919050565b7f4e487b7100000000000000000000000000000000000000000000000000000000600052603260045260246000fd5b7f646174613a696d6167652f7376672b786d6c3b6261736536342c000000000000600082015250565b6000612fbd601a83612bb7565b9150612fc882612f87565b601a82019050919050565b6000612fde82612fb0565b9150612fea8284612c0e565b915081905092915050565b7f7b226e616d65223a220000000000000000000000000000000000000000000000600082015250565b600061302b600983612bb7565b915061303682612ff5565b600982019050919050565b7f222c226465736372697074696f6e223a22416e204e46542066726f6d2074686560008201527f20686967686c79206163636c61696d6564204563746f706c61736d6120636f6c60208201527f6c656374696f6e222c22696d616765223a220000000000000000000000000000604082015250565b60006130c3605283612bb7565b91506130ce82613041565b605282019050919050565b7f227d000000000000000000000000000000000000000000000000000000000000600082015250565b600061310f600283612bb7565b915061311a826130d9565b600282019050919050565b60006131308261301e565b915061313c8287612c0e565b91506131488286612c0e565b91506131548285612c0e565b915061315f826130b6565b915061316b8284612c0e565b915061317682613102565b915081905095945050505050565b600081519050919050565b600082825260208201905092915050565b60006131ab82613184565b6131b5818561318f565b93506131c5818560208601612267565b6131ce81612291565b840191505092915050565b60006080820190506131ee6000830187612392565b6131fb6020830186612392565b61320860408301856124e2565b818103606083015261321a81846131a0565b905095945050505050565b600081519050613234816121bc565b92915050565b6000602082840312156132505761324f612186565b5b600061325e84828501613225565b91505092915050565b7f3c73766720786d6c6e733d22687474703a2f2f7777772e77332e6f72672f323060008201527f30302f73766722207072657365727665417370656374526174696f3d22784d6960208201527f6e594d696e206d656574222076696577426f783d22302030203335302033353060408201527f223e0d0a202020203c7374796c653e2e62617365207b2066696c6c3a2077686960608201527f74653b20666f6e742d66616d696c793a2073657269663b20666f6e742d73697a60808201527f653a20313870783b207d3c2f7374796c653e0d0a202020203c7265637420776960a08201527f6474683d223130302522206865696768743d2231303025222066696c6c3d222360c08201527f38303030666622202f3e0d0a202020203c7465787420783d223530252220793d60e08201527f223530252220636c6173733d22626173652220646f6d696e616e742d626173656101008201527f6c696e653d226d6964646c652220746578742d616e63686f723d226d6964646c6101208201527f65223e000000000000000000000000000000000000000000000000000000000061014082015250565b600061341d61014383612bb7565b915061342882613267565b61014382019050919050565b7f3c2f746578743e0d0a3c2f7376673e0000000000000000000000000000000000600082015250565b600061346a600f83612bb7565b915061347582613434565b600f82019050919050565b600061348b8261340f565b91506134978286612c0e565b91506134a38285612c0e565b91506134af8284612c0e565b91506134ba8261345d565b9150819050949350505050565b60006134d2826122fd565b91506134dd836122fd565b9250826134ed576134ec612ac5565b5b828204905092915050565b6000613503826122fd565b915061350e836122fd565b925082820261351c816122fd565b9150828204841483151761353357613532612d85565b5b5092915050565b7f4552433732313a206d696e7420746f20746865207a65726f2061646472657373600082015250565b6000613570602083612256565b915061357b8261353a565b602082019050919050565b6000602082019050818103600083015261359f81613563565b9050919050565b7f4552433732313a20746f6b656e20616c7265616479206d696e74656400000000600082015250565b60006135dc601c83612256565b91506135e7826135a6565b602082019050919050565b6000602082019050818103600083015261360b816135cf565b905091905056fe416e204e465420772f20494420257320686173206265656e206d696e74656420746f2025734142434445464748494a4b4c4d4e4f505152535455565758595a6162636465666768696a6b6c6d6e6f707172737475767778797a303132333435363738392b2fa264697066735822122079ad15c20168e064edb15b42562c358a2f7f4f21261d671ea9ea9b212601817364736f6c63430008110033",
    "linkReferences": {},
    "deployedLinkReferences": {}
}